{
  "_format": "hh-sol-artifact-1",
  "contractName": "CampaignTestCase",
  "sourceName": "contracts/CampaignTestCase.sol",
  "abi": [
    {
      "inputs": [],
      "stateMutability": "nonpayable",
      "type": "constructor"
    },
    {
      "inputs": [
        {
          "internalType": "uint256",
          "name": "index",
          "type": "uint256"
        }
      ],
      "name": "approveRequest",
      "outputs": [],
      "stateMutability": "nonpayable",
      "type": "function"
    },
    {
      "inputs": [
        {
          "internalType": "address",
          "name": "",
          "type": "address"
        }
      ],
      "name": "approvers",
      "outputs": [
        {
          "internalType": "bool",
          "name": "",
          "type": "bool"
        }
      ],
      "stateMutability": "view",
      "type": "function"
    },
    {
      "inputs": [],
      "name": "contribute",
      "outputs": [],
      "stateMutability": "payable",
      "type": "function"
    },
    {
      "inputs": [],
      "name": "contributionAmount",
      "outputs": [
        {
          "internalType": "uint256",
          "name": "",
          "type": "uint256"
        }
      ],
      "stateMutability": "view",
      "type": "function"
    },
    {
      "inputs": [
        {
          "internalType": "string",
          "name": "description",
          "type": "string"
        },
        {
          "internalType": "uint256",
          "name": "value",
          "type": "uint256"
        },
        {
          "internalType": "address",
          "name": "recipient",
          "type": "address"
        }
      ],
      "name": "createRequest",
      "outputs": [],
      "stateMutability": "nonpayable",
      "type": "function"
    },
    {
      "inputs": [
        {
          "internalType": "uint256",
          "name": "index",
          "type": "uint256"
        }
      ],
      "name": "finalizeRequest",
      "outputs": [],
      "stateMutability": "payable",
      "type": "function"
    },
    {
      "inputs": [],
      "name": "manager",
      "outputs": [
        {
          "internalType": "address",
          "name": "",
          "type": "address"
        }
      ],
      "stateMutability": "view",
      "type": "function"
    },
    {
      "inputs": [],
      "name": "minmumContribution",
      "outputs": [
        {
          "internalType": "uint256",
          "name": "",
          "type": "uint256"
        }
      ],
      "stateMutability": "view",
      "type": "function"
    }
  ],
  "bytecode": "0x608060405234801561001057600080fd5b5033600160006101000a81548173ffffffffffffffffffffffffffffffffffffffff021916908373ffffffffffffffffffffffffffffffffffffffff160217905550610e6f806100616000396000f3fe60806040526004361061007b5760003560e01c80635fa0b65f1161004e5780635fa0b65f1461012f5780638a9cfd551461015a578063d7bb99ba14610183578063d7d1bbdb1461018d5761007b565b806303441006146100805780630a1443911461009c57806332125731146100d9578063481c6a7514610104575b600080fd5b61009a600480360381019061009591906108ba565b6101b6565b005b3480156100a857600080fd5b506100c360048036038101906100be919061082a565b610343565b6040516100d091906109da565b60405180910390f35b3480156100e557600080fd5b506100ee610363565b6040516100fb9190610a95565b60405180910390f35b34801561011057600080fd5b50610119610369565b60405161012691906109bf565b60405180910390f35b34801561013b57600080fd5b5061014461038f565b6040516101519190610a95565b60405180910390f35b34801561016657600080fd5b50610181600480360381019061017c9190610853565b610397565b005b61018b610496565b005b34801561019957600080fd5b506101b460048036038101906101af91906108ba565b61054c565b005b33600160006101000a81548173ffffffffffffffffffffffffffffffffffffffff021916908373ffffffffffffffffffffffffffffffffffffffff16021790555060008060008381526020019081526020016000209050600260045461021c9190610b17565b816003015411610261576040517f08c379a000000000000000000000000000000000000000000000000000000000815260040161025890610a35565b60405180910390fd5b8060020160149054906101000a900460ff16156102b3576040517f08c379a00000000000000000000000000000000000000000000000000000000081526004016102aa90610a55565b60405180910390fd5b8060020160009054906101000a900473ffffffffffffffffffffffffffffffffffffffff1673ffffffffffffffffffffffffffffffffffffffff166108fc82600101549081150290604051600060405180830381858888f19350505050158015610321573d6000803e3d6000fd5b5060018160020160146101000a81548160ff0219169083151502179055505050565b60056020528060005260406000206000915054906101000a900460ff1681565b60025481565b600160009054906101000a900473ffffffffffffffffffffffffffffffffffffffff1681565b600047905090565b33600160006101000a81548173ffffffffffffffffffffffffffffffffffffffff021916908373ffffffffffffffffffffffffffffffffffffffff1602179055506000806000600360008154809291906103f090610c02565b91905055815260200190815260200160002090508381600001908051906020019061041c9291906106f5565b50828160010181905550818160020160006101000a81548173ffffffffffffffffffffffffffffffffffffffff021916908373ffffffffffffffffffffffffffffffffffffffff16021790555060008160020160146101000a81548160ff0219169083151502179055506000816003018190555050505050565b60025434116104da576040517f08c379a00000000000000000000000000000000000000000000000000000000081526004016104d1906109f5565b60405180910390fd5b6001600560003373ffffffffffffffffffffffffffffffffffffffff1673ffffffffffffffffffffffffffffffffffffffff16815260200190815260200160002060006101000a81548160ff0219169083151502179055506004600081548092919061054590610c02565b9190505550565b60008060008381526020019081526020016000209050600560003373ffffffffffffffffffffffffffffffffffffffff1673ffffffffffffffffffffffffffffffffffffffff16815260200190815260200160002060009054906101000a900460ff166105ee576040517f08c379a00000000000000000000000000000000000000000000000000000000081526004016105e590610a15565b60405180910390fd5b8060040160003373ffffffffffffffffffffffffffffffffffffffff1673ffffffffffffffffffffffffffffffffffffffff16815260200190815260200160002060009054906101000a900460ff161561067d576040517f08c379a000000000000000000000000000000000000000000000000000000000815260040161067490610a75565b60405180910390fd5b60018160040160003373ffffffffffffffffffffffffffffffffffffffff1673ffffffffffffffffffffffffffffffffffffffff16815260200190815260200160002060006101000a81548160ff0219169083151502179055508060030160008154809291906106ec90610c02565b91905055505050565b82805461070190610b9f565b90600052602060002090601f016020900481019282610723576000855561076a565b82601f1061073c57805160ff191683800117855561076a565b8280016001018555821561076a579182015b8281111561076957825182559160200191906001019061074e565b5b509050610777919061077b565b5090565b5b8082111561079457600081600090555060010161077c565b5090565b60006107ab6107a684610ad5565b610ab0565b9050828152602081018484840111156107c357600080fd5b6107ce848285610b90565b509392505050565b6000813590506107e581610e0b565b92915050565b600082601f8301126107fc57600080fd5b813561080c848260208601610798565b91505092915050565b60008135905061082481610e22565b92915050565b60006020828403121561083c57600080fd5b600061084a848285016107d6565b91505092915050565b60008060006060848603121561086857600080fd5b600084013567ffffffffffffffff81111561088257600080fd5b61088e868287016107eb565b935050602061089f86828701610815565b92505060406108b0868287016107d6565b9150509250925092565b6000602082840312156108cc57600080fd5b60006108da84828501610815565b91505092915050565b6108ec81610b48565b82525050565b6108fb81610b5a565b82525050565b600061090e602883610b06565b915061091982610d18565b604082019050919050565b6000610931601383610b06565b915061093c82610d67565b602082019050919050565b6000610954601d83610b06565b915061095f82610d90565b602082019050919050565b6000610977601883610b06565b915061098282610db9565b602082019050919050565b600061099a601b83610b06565b91506109a582610de2565b602082019050919050565b6109b981610b86565b82525050565b60006020820190506109d460008301846108e3565b92915050565b60006020820190506109ef60008301846108f2565b92915050565b60006020820190508181036000830152610a0e81610901565b9050919050565b60006020820190508181036000830152610a2e81610924565b9050919050565b60006020820190508181036000830152610a4e81610947565b9050919050565b60006020820190508181036000830152610a6e8161096a565b9050919050565b60006020820190508181036000830152610a8e8161098d565b9050919050565b6000602082019050610aaa60008301846109b0565b92915050565b6000610aba610acb565b9050610ac68282610bd1565b919050565b6000604051905090565b600067ffffffffffffffff821115610af057610aef610cd8565b5b610af982610d07565b9050602081019050919050565b600082825260208201905092915050565b6000610b2282610b86565b9150610b2d83610b86565b925082610b3d57610b3c610c7a565b5b828204905092915050565b6000610b5382610b66565b9050919050565b60008115159050919050565b600073ffffffffffffffffffffffffffffffffffffffff82169050919050565b6000819050919050565b82818337600083830152505050565b60006002820490506001821680610bb757607f821691505b60208210811415610bcb57610bca610ca9565b5b50919050565b610bda82610d07565b810181811067ffffffffffffffff82111715610bf957610bf8610cd8565b5b80604052505050565b6000610c0d82610b86565b91507fffffffffffffffffffffffffffffffffffffffffffffffffffffffffffffffff821415610c4057610c3f610c4b565b5b600182019050919050565b7f4e487b7100000000000000000000000000000000000000000000000000000000600052601160045260246000fd5b7f4e487b7100000000000000000000000000000000000000000000000000000000600052601260045260246000fd5b7f4e487b7100000000000000000000000000000000000000000000000000000000600052602260045260246000fd5b7f4e487b7100000000000000000000000000000000000000000000000000000000600052604160045260246000fd5b6000601f19601f8301169050919050565b7f706c6561736520656e746572206d696e756d756d20636f6e747269627574696f60008201527f6e20616d6f756e74000000000000000000000000000000000000000000000000602082015250565b7f796f7520617265206e6f74206d616e6167657200000000000000000000000000600082015250565b7f6d696e696d756d20353025206170706f76616c73207265717569726564000000600082015250565b7f72657175657374206973206e6f7420636f6d706c657465640000000000000000600082015250565b7f796f752061726520616c726561647920636f6e74726962757465640000000000600082015250565b610e1481610b48565b8114610e1f57600080fd5b50565b610e2b81610b86565b8114610e3657600080fd5b5056fea2646970667358221220b4bbd5a9a1f443e0bd616df913705cb198324992ebfe9c1b74b591a75942c88864736f6c63430008040033",
  "linkReferences": {},
  "deployedLinkReferences": {}
}