{
  "_format": "hh-sol-artifact-1",
  "contractName": "Lottery",
  "sourceName": "contracts/Lottery.sol",
  "abi": [
    {
      "inputs": [],
      "stateMutability": "nonpayable",
      "type": "constructor"
    },
    {
      "inputs": [],
      "name": "checkBalance",
      "outputs": [
        {
          "internalType": "uint256",
          "name": "",
          "type": "uint256"
        }
      ],
      "stateMutability": "view",
      "type": "function"
    },
    {
      "inputs": [],
      "name": "enter",
      "outputs": [],
      "stateMutability": "payable",
      "type": "function"
    },
    {
      "inputs": [],
      "name": "manager",
      "outputs": [
        {
          "internalType": "address",
          "name": "",
          "type": "address"
        }
      ],
      "stateMutability": "view",
      "type": "function"
    },
    {
      "inputs": [],
      "name": "pickWinner",
      "outputs": [],
      "stateMutability": "nonpayable",
      "type": "function"
    },
    {
      "inputs": [],
      "name": "playerRecord",
      "outputs": [
        {
          "internalType": "address[]",
          "name": "",
          "type": "address[]"
        }
      ],
      "stateMutability": "view",
      "type": "function"
    },
    {
      "inputs": [
        {
          "internalType": "uint256",
          "name": "",
          "type": "uint256"
        }
      ],
      "name": "players",
      "outputs": [
        {
          "internalType": "address",
          "name": "",
          "type": "address"
        }
      ],
      "stateMutability": "view",
      "type": "function"
    }
  ],
  "bytecode": "0x608060405234801561001057600080fd5b50336000806101000a81548173ffffffffffffffffffffffffffffffffffffffff021916908373ffffffffffffffffffffffffffffffffffffffff1602179055506109bc806100606000396000f3fe6080604052600436106100555760003560e01c806306b314ae1461005a578063481c6a75146100855780635d495aea146100b0578063c71daccb146100c7578063e97dcb62146100f2578063f71d96cb146100fc575b600080fd5b34801561006657600080fd5b5061006f610139565b60405161007c91906106d2565b60405180910390f35b34801561009157600080fd5b5061009a6101c7565b6040516100a791906106b7565b60405180910390f35b3480156100bc57600080fd5b506100c56101eb565b005b3480156100d357600080fd5b506100dc610351565b6040516100e99190610734565b60405180910390f35b6100fa610359565b005b34801561010857600080fd5b50610123600480360381019061011e91906104c9565b610401565b60405161013091906106b7565b60405180910390f35b606060018054806020026020016040519081016040528092919081815260200182805480156101bd57602002820191906000526020600020905b8160009054906101000a900473ffffffffffffffffffffffffffffffffffffffff1673ffffffffffffffffffffffffffffffffffffffff1681526020019060010190808311610173575b5050505050905090565b60008054906101000a900473ffffffffffffffffffffffffffffffffffffffff1681565b60008054906101000a900473ffffffffffffffffffffffffffffffffffffffff1673ffffffffffffffffffffffffffffffffffffffff163373ffffffffffffffffffffffffffffffffffffffff1614610279576040517f08c379a000000000000000000000000000000000000000000000000000000000815260040161027090610714565b60405180910390fd5b6000600180549050610289610440565b6102939190610851565b9050600181815481106102cf577f4e487b7100000000000000000000000000000000000000000000000000000000600052603260045260246000fd5b9060005260206000200160009054906101000a900473ffffffffffffffffffffffffffffffffffffffff1673ffffffffffffffffffffffffffffffffffffffff166108fc479081150290604051600060405180830381858888f1935050505015801561033f573d6000803e3d6000fd5b506001600061034e9190610476565b50565b600047905090565b600b341461039c576040517f08c379a0000000000000000000000000000000000000000000000000000000008152600401610393906106f4565b60405180910390fd5b6001339080600181540180825580915050600190039060005260206000200160009091909190916101000a81548173ffffffffffffffffffffffffffffffffffffffff021916908373ffffffffffffffffffffffffffffffffffffffff160217905550565b6001818154811061041157600080fd5b906000526020600020016000915054906101000a900473ffffffffffffffffffffffffffffffffffffffff1681565b6000444260016040516020016104589392919061067e565b6040516020818303038152906040528051906020012060001c905090565b50805460008255906000526020600020908101906104949190610497565b50565b5b808211156104b0576000816000905550600101610498565b5090565b6000813590506104c38161096f565b92915050565b6000602082840312156104db57600080fd5b60006104e9848285016104b4565b91505092915050565b60006104fe8383610522565b60208301905092915050565b60006105168383610540565b60208301905092915050565b61052b816107f1565b82525050565b61053a816107f1565b82525050565b610549816107f1565b82525050565b600061055a82610774565b61056481856107a4565b935061056f8361074f565b8060005b838110156105a057815161058788826104f2565b97506105928361078a565b925050600181019050610573565b5085935050505092915050565b60006105b88261077f565b6105c281856107b5565b93506105cd8361075f565b8060005b83811015610605576105e2826108b1565b6105ec888261050a565b97506105f783610797565b9250506001810190506105d1565b5085935050505092915050565b600061061f6028836107c0565b915061062a826108d1565b604082019050919050565b60006106426022836107c0565b915061064d82610920565b604082019050919050565b61066181610823565b82525050565b61067861067382610823565b610847565b82525050565b600061068a8286610667565b60208201915061069a8285610667565b6020820191506106aa82846105ad565b9150819050949350505050565b60006020820190506106cc6000830184610531565b92915050565b600060208201905081810360008301526106ec818461054f565b905092915050565b6000602082019050818103600083015261070d81610612565b9050919050565b6000602082019050818103600083015261072d81610635565b9050919050565b60006020820190506107496000830184610658565b92915050565b6000819050602082019050919050565b60008190508160005260206000209050919050565b600081519050919050565b600081549050919050565b6000602082019050919050565b6000600182019050919050565b600082825260208201905092915050565b600081905092915050565b600082825260208201905092915050565b600073ffffffffffffffffffffffffffffffffffffffff82169050919050565b60006107fc82610803565b9050919050565b600073ffffffffffffffffffffffffffffffffffffffff82169050919050565b6000819050919050565b600061084061083b836108c4565b6107d1565b9050919050565b6000819050919050565b600061085c82610823565b915061086783610823565b92508261087757610876610882565b5b828206905092915050565b7f4e487b7100000000000000000000000000000000000000000000000000000000600052601260045260246000fd5b60006108bd825461082d565b9050919050565b60008160001c9050919050565b7f4c6f74746572793a20656e74657220616d6f756e742076616c75652073686f7560008201527f6c64206265203131000000000000000000000000000000000000000000000000602082015250565b7f4c6f74746572793a204d73672e73656e646572206973206e6f74206d616e616760008201527f6572000000000000000000000000000000000000000000000000000000000000602082015250565b61097881610823565b811461098357600080fd5b5056fea26469706673582212206e3e06fc7b89717871e2aefa5fcab1a5b6d75294d9fa93fc3b2bc245af4aaa0f64736f6c63430008040033",
  "linkReferences": {},
  "deployedLinkReferences": {}
}