{
  "_format": "hh-sol-artifact-1",
  "contractName": "Campaign",
  "sourceName": "contracts/Campaign.sol",
  "abi": [
    {
      "inputs": [
        {
          "internalType": "uint256",
          "name": "minimum",
          "type": "uint256"
        },
        {
          "internalType": "address",
          "name": "creator",
          "type": "address"
        }
      ],
      "stateMutability": "nonpayable",
      "type": "constructor"
    },
    {
      "inputs": [
        {
          "internalType": "uint256",
          "name": "index",
          "type": "uint256"
        }
      ],
      "name": "approveRequest",
      "outputs": [],
      "stateMutability": "nonpayable",
      "type": "function"
    },
    {
      "inputs": [
        {
          "internalType": "address",
          "name": "",
          "type": "address"
        }
      ],
      "name": "approvers",
      "outputs": [
        {
          "internalType": "bool",
          "name": "",
          "type": "bool"
        }
      ],
      "stateMutability": "view",
      "type": "function"
    },
    {
      "inputs": [],
      "name": "contribute",
      "outputs": [],
      "stateMutability": "payable",
      "type": "function"
    },
    {
      "inputs": [],
      "name": "contributionAmount",
      "outputs": [
        {
          "internalType": "uint256",
          "name": "",
          "type": "uint256"
        }
      ],
      "stateMutability": "view",
      "type": "function"
    },
    {
      "inputs": [
        {
          "internalType": "string",
          "name": "description",
          "type": "string"
        },
        {
          "internalType": "uint256",
          "name": "value",
          "type": "uint256"
        },
        {
          "internalType": "address",
          "name": "recipient",
          "type": "address"
        }
      ],
      "name": "createRequest",
      "outputs": [],
      "stateMutability": "nonpayable",
      "type": "function"
    },
    {
      "inputs": [
        {
          "internalType": "uint256",
          "name": "index",
          "type": "uint256"
        }
      ],
      "name": "finalizeRequest",
      "outputs": [],
      "stateMutability": "payable",
      "type": "function"
    },
    {
      "inputs": [],
      "name": "getRequestsCount",
      "outputs": [
        {
          "internalType": "uint256",
          "name": "",
          "type": "uint256"
        }
      ],
      "stateMutability": "view",
      "type": "function"
    },
    {
      "inputs": [],
      "name": "getSummery",
      "outputs": [
        {
          "internalType": "uint256",
          "name": "",
          "type": "uint256"
        },
        {
          "internalType": "uint256",
          "name": "",
          "type": "uint256"
        },
        {
          "internalType": "uint256",
          "name": "",
          "type": "uint256"
        },
        {
          "internalType": "uint256",
          "name": "",
          "type": "uint256"
        },
        {
          "internalType": "address",
          "name": "",
          "type": "address"
        }
      ],
      "stateMutability": "view",
      "type": "function"
    },
    {
      "inputs": [],
      "name": "manager",
      "outputs": [
        {
          "internalType": "address",
          "name": "",
          "type": "address"
        }
      ],
      "stateMutability": "view",
      "type": "function"
    },
    {
      "inputs": [],
      "name": "minmumContribution",
      "outputs": [
        {
          "internalType": "uint256",
          "name": "",
          "type": "uint256"
        }
      ],
      "stateMutability": "view",
      "type": "function"
    },
    {
      "inputs": [
        {
          "internalType": "uint256",
          "name": "requestNumber",
          "type": "uint256"
        }
      ],
      "name": "viewRequest",
      "outputs": [
        {
          "internalType": "string",
          "name": "description",
          "type": "string"
        },
        {
          "internalType": "uint256",
          "name": "value",
          "type": "uint256"
        },
        {
          "internalType": "address",
          "name": "recipient",
          "type": "address"
        },
        {
          "internalType": "bool",
          "name": "complete",
          "type": "bool"
        }
      ],
      "stateMutability": "view",
      "type": "function"
    }
  ],
  "bytecode": "0x60806040523480156200001157600080fd5b5060405162001300380380620013008339818101604052810190620000379190620000b5565b80600160006101000a81548173ffffffffffffffffffffffffffffffffffffffff021916908373ffffffffffffffffffffffffffffffffffffffff16021790555081600281905550505062000168565b600081519050620000988162000134565b92915050565b600081519050620000af816200014e565b92915050565b60008060408385031215620000c957600080fd5b6000620000d9858286016200009e565b9250506020620000ec8582860162000087565b9150509250929050565b600062000103826200010a565b9050919050565b600073ffffffffffffffffffffffffffffffffffffffff82169050919050565b6000819050919050565b6200013f81620000f6565b81146200014b57600080fd5b50565b62000159816200012a565b81146200016557600080fd5b50565b61118880620001786000396000f3fe60806040526004361061009c5760003560e01c8063481c6a7511610064578063481c6a75146101905780635fa0b65f146101bb5780638a9cfd55146101e6578063d7bb99ba1461020f578063d7d1bbdb14610219578063f146b3d0146102425761009c565b806303441006146100a15780630a144391146100bd57806326e85250146100fa578063321257311461013a5780633410452a14610165575b600080fd5b6100bb60048036038101906100b69190610abd565b610271565b005b3480156100c957600080fd5b506100e460048036038101906100df9190610a2d565b6103fe565b6040516100f19190610c16565b60405180910390f35b34801561010657600080fd5b50610121600480360381019061011c9190610abd565b61041e565b6040516101319493929190610c31565b60405180910390f35b34801561014657600080fd5b5061014f610516565b60405161015c9190610d1d565b60405180910390f35b34801561017157600080fd5b5061017a61051c565b6040516101879190610d1d565b60405180910390f35b34801561019c57600080fd5b506101a5610526565b6040516101b29190610bfb565b60405180910390f35b3480156101c757600080fd5b506101d061054c565b6040516101dd9190610d1d565b60405180910390f35b3480156101f257600080fd5b5061020d60048036038101906102089190610a56565b610554565b005b610217610653565b005b34801561022557600080fd5b50610240600480360381019061023b9190610abd565b610709565b005b34801561024e57600080fd5b506102576108b2565b604051610268959493929190610d38565b60405180910390f35b33600160006101000a81548173ffffffffffffffffffffffffffffffffffffffff021916908373ffffffffffffffffffffffffffffffffffffffff1602179055506000806000838152602001908152602001600020905060026004546102d79190610dfd565b81600301541161031c576040517f08c379a000000000000000000000000000000000000000000000000000000000815260040161031390610cfd565b60405180910390fd5b8060020160149054906101000a900460ff161561036e576040517f08c379a000000000000000000000000000000000000000000000000000000000815260040161036590610cbd565b60405180910390fd5b8060020160009054906101000a900473ffffffffffffffffffffffffffffffffffffffff1673ffffffffffffffffffffffffffffffffffffffff166108fc82600101549081150290604051600060405180830381858888f193505050501580156103dc573d6000803e3d6000fd5b5060018160020160146101000a81548160ff0219169083151502179055505050565b60056020528060005260406000206000915054906101000a900460ff1681565b606060008060008060008087815260200190815260200160002090508060000181600101548260020160009054906101000a900473ffffffffffffffffffffffffffffffffffffffff168360020160149054906101000a900460ff1683805461048690610eb8565b80601f01602080910402602001604051908101604052809291908181526020018280546104b290610eb8565b80156104ff5780601f106104d4576101008083540402835291602001916104ff565b820191906000526020600020905b8154815290600101906020018083116104e257829003601f168201915b505050505093509450945094509450509193509193565b60025481565b6000600354905090565b600160009054906101000a900473ffffffffffffffffffffffffffffffffffffffff1681565b600047905090565b33600160006101000a81548173ffffffffffffffffffffffffffffffffffffffff021916908373ffffffffffffffffffffffffffffffffffffffff1602179055506000806000600360008154809291906105ad90610f1b565b9190505581526020019081526020016000209050838160000190805190602001906105d99291906108f8565b50828160010181905550818160020160006101000a81548173ffffffffffffffffffffffffffffffffffffffff021916908373ffffffffffffffffffffffffffffffffffffffff16021790555060008160020160146101000a81548160ff0219169083151502179055506000816003018190555050505050565b6002543411610697576040517f08c379a000000000000000000000000000000000000000000000000000000000815260040161068e90610c7d565b60405180910390fd5b6001600560003373ffffffffffffffffffffffffffffffffffffffff1673ffffffffffffffffffffffffffffffffffffffff16815260200190815260200160002060006101000a81548160ff0219169083151502179055506004600081548092919061070290610f1b565b9190505550565b60008060008381526020019081526020016000209050600560003373ffffffffffffffffffffffffffffffffffffffff1673ffffffffffffffffffffffffffffffffffffffff16815260200190815260200160002060009054906101000a900460ff166107ab576040517f08c379a00000000000000000000000000000000000000000000000000000000081526004016107a290610c9d565b60405180910390fd5b8060040160003373ffffffffffffffffffffffffffffffffffffffff1673ffffffffffffffffffffffffffffffffffffffff16815260200190815260200160002060009054906101000a900460ff161561083a576040517f08c379a000000000000000000000000000000000000000000000000000000000815260040161083190610cdd565b60405180910390fd5b60018160040160003373ffffffffffffffffffffffffffffffffffffffff1673ffffffffffffffffffffffffffffffffffffffff16815260200190815260200160002060006101000a81548160ff0219169083151502179055508060030160008154809291906108a990610f1b565b91905055505050565b600080600080600060025447600354600454600160009054906101000a900473ffffffffffffffffffffffffffffffffffffffff16945094509450945094509091929394565b82805461090490610eb8565b90600052602060002090601f016020900481019282610926576000855561096d565b82601f1061093f57805160ff191683800117855561096d565b8280016001018555821561096d579182015b8281111561096c578251825591602001919060010190610951565b5b50905061097a919061097e565b5090565b5b8082111561099757600081600090555060010161097f565b5090565b60006109ae6109a984610db0565b610d8b565b9050828152602081018484840111156109c657600080fd5b6109d1848285610e76565b509392505050565b6000813590506109e881611124565b92915050565b600082601f8301126109ff57600080fd5b8135610a0f84826020860161099b565b91505092915050565b600081359050610a278161113b565b92915050565b600060208284031215610a3f57600080fd5b6000610a4d848285016109d9565b91505092915050565b600080600060608486031215610a6b57600080fd5b600084013567ffffffffffffffff811115610a8557600080fd5b610a91868287016109ee565b9350506020610aa286828701610a18565b9250506040610ab3868287016109d9565b9150509250925092565b600060208284031215610acf57600080fd5b6000610add84828501610a18565b91505092915050565b610aef81610e2e565b82525050565b610afe81610e40565b82525050565b6000610b0f82610de1565b610b198185610dec565b9350610b29818560208601610e85565b610b3281611020565b840191505092915050565b6000610b4a602883610dec565b9150610b5582611031565b604082019050919050565b6000610b6d601383610dec565b9150610b7882611080565b602082019050919050565b6000610b90601883610dec565b9150610b9b826110a9565b602082019050919050565b6000610bb3601b83610dec565b9150610bbe826110d2565b602082019050919050565b6000610bd6601483610dec565b9150610be1826110fb565b602082019050919050565b610bf581610e6c565b82525050565b6000602082019050610c106000830184610ae6565b92915050565b6000602082019050610c2b6000830184610af5565b92915050565b60006080820190508181036000830152610c4b8187610b04565b9050610c5a6020830186610bec565b610c676040830185610ae6565b610c746060830184610af5565b95945050505050565b60006020820190508181036000830152610c9681610b3d565b9050919050565b60006020820190508181036000830152610cb681610b60565b9050919050565b60006020820190508181036000830152610cd681610b83565b9050919050565b60006020820190508181036000830152610cf681610ba6565b9050919050565b60006020820190508181036000830152610d1681610bc9565b9050919050565b6000602082019050610d326000830184610bec565b92915050565b600060a082019050610d4d6000830188610bec565b610d5a6020830187610bec565b610d676040830186610bec565b610d746060830185610bec565b610d816080830184610ae6565b9695505050505050565b6000610d95610da6565b9050610da18282610eea565b919050565b6000604051905090565b600067ffffffffffffffff821115610dcb57610dca610ff1565b5b610dd482611020565b9050602081019050919050565b600081519050919050565b600082825260208201905092915050565b6000610e0882610e6c565b9150610e1383610e6c565b925082610e2357610e22610f93565b5b828204905092915050565b6000610e3982610e4c565b9050919050565b60008115159050919050565b600073ffffffffffffffffffffffffffffffffffffffff82169050919050565b6000819050919050565b82818337600083830152505050565b60005b83811015610ea3578082015181840152602081019050610e88565b83811115610eb2576000848401525b50505050565b60006002820490506001821680610ed057607f821691505b60208210811415610ee457610ee3610fc2565b5b50919050565b610ef382611020565b810181811067ffffffffffffffff82111715610f1257610f11610ff1565b5b80604052505050565b6000610f2682610e6c565b91507fffffffffffffffffffffffffffffffffffffffffffffffffffffffffffffffff821415610f5957610f58610f64565b5b600182019050919050565b7f4e487b7100000000000000000000000000000000000000000000000000000000600052601160045260246000fd5b7f4e487b7100000000000000000000000000000000000000000000000000000000600052601260045260246000fd5b7f4e487b7100000000000000000000000000000000000000000000000000000000600052602260045260246000fd5b7f4e487b7100000000000000000000000000000000000000000000000000000000600052604160045260246000fd5b6000601f19601f8301169050919050565b7f706c6561736520656e746572206d696e756d756d20636f6e747269627574696f60008201527f6e20616d6f756e74000000000000000000000000000000000000000000000000602082015250565b7f796f7520617265206e6f74206d616e6167657200000000000000000000000000600082015250565b7f72657175657374206973206e6f7420636f6d706c657465640000000000000000600082015250565b7f796f752061726520616c726561647920636f6e74726962757465640000000000600082015250565b7f736f6d657468696e672077656e742077726f6e67000000000000000000000000600082015250565b61112d81610e2e565b811461113857600080fd5b50565b61114481610e6c565b811461114f57600080fd5b5056fea26469706673582212200ae81f16cfcd3d45a69565c0eb9c5b420b087c5b71c9e0d439de33880daa880a64736f6c63430008040033",
  "linkReferences": {},
  "deployedLinkReferences": {}
}